:100000000C9462000C9443010C9470010C948A00CF
:100010000C948A000C948A000C948A000C94AA0612
:100020000C948A000C948A000C948A000C948A0028
:100030000C948A000C948A000C948A000C948A0018
:100040000C949D010C948A000C946D030C948A000E
:100050000C948A000C948A000C948A000C948A00F8
:100060000C948A000C948A000000000024002700F1
:100070002A0000000000250028002B0000000000DE
:1000800023002600290004040404040404040202DA
:100090000202020203030303030301020408102007
:1000A0004080010204081020010204081020000012
:1000B0000007000201000003040600000000000029
:1000C0000000180511241FBECFEFD8E0DEBFCDBF62
:1000D00011E0A0E0B1E0E2E3F0E102C005900D9292
:1000E000AA31B107D9F711E0AAE1B1E001C01D9230
:1000F000A73CB107E1F710E0C4ECD0E004C02297C0
:10010000FE010E94DC07C23CD107C9F70E943C01F6
:100110000C9417080C940000A0E0B0E0E2E9F0E0D5
:100120000C94E807EC01A880B980CA80DB80A11498
:10013000B104C104D10441F484E2A82E89EDB82EA3
:100140008BE5C82E87E0D82EC601B5012DE133EF2F
:1001500041E050E00E94AB0727EA31E440E050E084
:100160000E9457077B018C01C601B5012DE133EFD9
:1001700041E050E00E94AB07CA01B9012CEE34EF18
:100180004FEF5FEF0E9457076E0D7F1D801F911F7D
:1001900097FF04C061507040804090486883798325
:1001A0008A839B839B01AC015F77B901CA01CDB7FC
:1001B000DEB7EAE00C9404080E948C00089580E009
:1001C00091E00E948C0008956093000170930101FA
:1001D00080930201909303010895209104013091CE
:1001E0000501C90165E070E00E947607892BB9F42A
:1001F00081E090E0909305018093040164E170E058
:1002000080E090E02AEF30E040E050E00E943107CB
:100210009B01AC018AE0B9010E949A0206C02F5FDF
:100220003F4F309305012093040183E00E94780240
:10023000BC0190931B0180931A018DEA91E04AE082
:1002400050E00E946E0668EE73E080E090E00E944D
:10025000E50108958AE061E00E94F3028DEA91E0F1
:1002600040E855E260E070E00E94AA0380E00E944E
:1002700078020E944F0708950E943E020E942A01C0
:100280000E94ED00FDCF1F920F920FB60F92112426
:100290002F933F934F935F936F937F938F939F938E
:1002A000AF93BF93EF93FF9380911C0190911D0139
:1002B000892B29F0E0911C01F0911D010995FF9116
:1002C000EF91BF91AF919F918F917F916F915F91CE
:1002D0004F913F912F910F900FBE0F901F90189547
:1002E0001F920F920FB60F9211242F933F934F93AB
:1002F0005F936F937F938F939F93AF93BF93EF938E
:10030000FF9380911E0190911F01892B29F0E091AC
:100310001E01F0911F010995FF91EF91BF91AF91DF
:100320009F918F917F916F915F914F913F912F910D
:100330000F900FBE0F901F9018951F920F920FB63F
:100340000F9211242F933F938F939F93AF93BF935B
:100350008091240190912501A0912601B09127015F
:10036000309128010196A11DB11D232F2D5F2D373E
:1003700020F02D570196A11DB11D209328018093D7
:10038000240190932501A0932601B0932701809129
:10039000200190912101A0912201B09123010196A9
:1003A000A11DB11D8093200190932101A0932201F2
:1003B000B0932301BF91AF919F918F913F912F9166
:1003C0000F900FBE0F901F9018959B01AC017FB747
:1003D000F8948091200190912101A0912201B09187
:1003E000230166B5A89B05C06F3F19F00196A11DBA
:1003F000B11D7FBFBA2FA92F982F8827860F911D77
:10040000A11DB11D62E0880F991FAA1FBB1F6A952D
:10041000D1F7BC012DC0FFB7F894809120019091D5
:100420002101A0912201B0912301E6B5A89B05C04E
:10043000EF3F19F00196A11DB11DFFBFBA2FA92FE3
:10044000982F88278E0F911DA11DB11DE2E0880F06
:10045000991FAA1FBB1FEA95D1F7861B970B885ED1
:100460009340C8F2215030404040504068517C4F8A
:10047000211531054105510571F60895789484B52B
:10048000826084BD84B5816084BD85B5826085BD90
:1004900085B5816085BDEEE6F0E080818160808376
:1004A000E1E8F0E0808182608083808181608083E8
:1004B000E0E8F0E0808181608083E1EBF0E0808122
:1004C00084608083E0EBF0E0808181608083EAE7F4
:1004D000F0E080818460808380818260808380817D
:1004E000816080838081806880831092C10008953C
:1004F000982F8E3008F09E5097708091060182955B
:10050000880F880F807C892B80937C0080917A00F3
:10051000806480937A0080917A0086FDFCCF2091E0
:10052000780040917900942F80E030E0282B392B1F
:10053000C90108951F93CF93DF93182FEB0161E05A
:100540000E94F302E12FF0E0E255FF4F84918330E7
:1005500051F480918000806880938000D09389005E
:10056000C09388003CC0843051F480918000806248
:1005700080938000D0938B00C0938A0030C081307C
:1005800039F4209729F184B5806884BDC7BD27C0A0
:10059000823039F42097E1F084B5806284BDC8BD13
:1005A0001EC0863041F48091B00080688093B00016
:1005B000C093B30014C0873041F48091B0008062D2
:1005C0008093B000C093B4000AC0C038D1051CF4B9
:1005D000812F60E002C0812F61E00E941903DF914A
:1005E000CF911F910895482F50E0CA0186569F4F22
:1005F000FC0124914A575F4FFA0184918823C1F08E
:10060000E82FF0E0EE0FFF1FE859FF4FA591B491DE
:10061000662341F49FB7F8948C91209582238C93A4
:100620009FBF08959FB7F8948C91822B8C939FBFA6
:100630000895482F50E0CA0182559F4FFC01249134
:10064000CA0186569F4FFC0134914A575F4FFA0109
:100650009491992309F440C0222331F1233021F4ED
:10066000809180008F7705C0243031F48091800024
:100670008F7D8093800018C0213019F484B58F7766
:1006800004C0223021F484B58F7D84BD0DC0263096
:1006900021F48091B0008F7705C0273029F4809134
:1006A000B0008F7D8093B000E92FF0E0EE0FFF1FC8
:1006B000EE58FF4FA591B491662341F49FB7F8948B
:1006C0008C91309583238C939FBF08959FB7F894A6
:1006D0008C91832B8C939FBF08951F920F920FB61E
:1006E0000F9211242F933F934F935F936F937F93B8
:1006F0008F939F93AF93BF93EF93FF934091C60067
:10070000E091A901F091AA01CF01019660E870E0A3
:100710000E9476079C018091AB019091AC01281753
:10072000390739F0E75DFE4F40833093AA012093EB
:10073000A901FF91EF91BF91AF919F918F917F910F
:100740006F915F914F913F912F910F900FBE0F903E
:100750001F9018955F926F927F928F929F92AF92A7
:10076000BF92CF92DF92EF92FF920F931F93CF939E
:10077000DF93EC013A014B01413482E458078FE0EA
:10078000680780E078070CF07FC060E874E88EE1CD
:1007900090E0A40193010E94AB07215030404040FB
:1007A0005040CA01B90122E030E040E050E00E9430
:1007B000AB0759016A01A601950120953095409536
:1007C000509594E0220F331F441F551F9A95D1F77F
:1007D00060E074E284EF90E00E94AB07CA01B901C7
:1007E0002FEF30E040E050E00E945707A401930152
:1007F0000E94AB07C90181509F4F181619061CF4BF
:10080000522E5A9403C055245394521A60E079E052
:100810008DE390E0A40193010E94AB07215030408A
:1008200040405040CA01B90122E030E040E050E0D1
:100830000E94AB07209530954095509583E0220F9C
:10084000331F441F551F8A95D1F760E074E284EF8F
:1008500090E00E94AB07CA01B9012FEF30E040E001
:1008600050E00E945707A40193010E94AB07C90101
:1008700081509F4F181619061CF4822F815002C018
:1008800081E0821B851500F5E885F98581E090E01F
:100890000A8802C0880F991F0A94E2F7808360E0FB
:1008A00079E08DE390E0A40193010E94AB07215011
:1008B000304040405040CA01B90122E030E040E001
:1008C00050E00E94AB0704C0E885F98510829501CD
:1008D000EC81FD813083EE81FF812083EA85FB85F9
:1008E000208141E050E0CA010E8402C0880F991FA8
:1008F0000A94E2F7282B2083EA85FB852081CA0130
:100900000F8402C0880F991F0A94E2F7282B2083D6
:10091000EA85FB858081088802C0440F551F0A9430
:10092000E2F7842B8083DF91CF911F910F91FF908D
:10093000EF90DF90CF90BF90AF909F908F907F907F
:100940006F905F900895DC011296ED91FC911397E2
:10095000E058FF4F8191919180589F4F20813181C4
:10096000821B930B60E870E00E9476070895DC011B
:100970001296ED91FC911397EE57FF4F2081318134
:1009800092918291E058F0408217930719F42FEF6B
:100990003FEF05C0E20FF31F8081282F30E0C9012F
:1009A0000895CF93DF93DC011296ED91FC9113979C
:1009B000EF01CE57DF4F48815981E058FF4F8081CA
:1009C0009181E058F0408417950719F42FEF3FEF1D
:1009D0000CC0E40FF51F2081CA01019660E870E0A9
:1009E0000E9476079983888330E0C901DF91CF9117
:1009F0000895DC011296ED91FC911397EE57FF4F8D
:100A000080819181929382930895FC01A085B185A4
:100A100021898C9190E0022E02C0959587950A94C9
:100A2000E2F780FFF6CF0484F585E02D608308951A
:100A30008BE091E09093AE018093AD0189E291E06B
:100A40009093B0018093AF0185EC90E09093B20158
:100A50008093B10184EC90E09093B4018093B30152
:100A600080EC90E09093B6018093B50181EC90E02A
:100A70009093B8018093B70186EC90E09093BA010F
:100A80008093B90184E08093BB0183E08093BC0133
:100A900087E08093BD0185E08093BE0181E0809373
:100AA000BF0108950F931F93CF93DF938C01EB0148
:100AB00009C02196D801ED91FC910190F081E02DC3
:100AC000C801099568816623A1F7DF91CF911F9135
:100AD0000F910895EF92FF920F931F93CF93DF939F
:100AE0008C017B01EA010CC0D7016D917D01D80119
:100AF000ED91FC910190F081E02DC80109952197BD
:100B0000209791F7DF91CF911F910F91FF90EF9078
:100B100008952F923F924F925F926F927F928F92A1
:100B20009F92AF92BF92CF92DF92EF92FF920F937C
:100B30001F93DF93CF93CDB7DEB7A0970FB6F8948E
:100B4000DEBF0FBECDBF1C016A017B0141155105FF
:100B50006105710549F440E350E060E070E020E099
:100B600030E00E94210654C0882499245401422E6A
:100B700055246624772401E010E00C0F1D1F080D9A
:100B8000191DC701B601A30192010E948907F8014E
:100B900060830894811C911CA11CB11CC701B60183
:100BA000A30192010E948907C901DA016C017D014C
:100BB000C114D104E104F104F1F681E0E82EF12C36
:100BC000EC0EFD1EE80CF91C3E010894611C711C22
:100BD000D501C4010197A109B1096C01C818D90850
:100BE00014C0F601EE0DFF1D40814A3010F4405D47
:100BF00001C0495C50E060E070E0C10120E030E0FD
:100C00000E9421060894E108F1086E147F0449F758
:100C1000A0960FB6F894DEBF0FBECDBFCF91DF9187
:100C20001F910F91FF90EF90DF90CF90BF90AF900A
:100C30009F908F907F906F905F904F903F902F90FC
:100C40000895EF92FF920F931F93CF93DF93EC01E0
:100C50007A018B012115310541F4E881F981019078
:100C6000F081E02D642F09951BC02A303105B1F4C5
:100C700077FF10C04DE250E060E070E020E030E02F
:100C80000E94210610950095F094E094E11CF11C5F
:100C9000011D111DCE01B801A7012AE00E9489059E
:100CA000DF91CF911F910F91FF90EF9008950F93D7
:100CB0001F938C014DE050E060E070E020E030E0F8
:100CC0000E942106C8014AE050E060E070E020E0A8
:100CD00030E00E9421061F910F910895CF92DF927C
:100CE000EF92FF920F931F938C016B019A01EE24F8
:100CF000D7FCE094FE2CB701A6010E942106C80192
:100D00000E9457061F910F91FF90EF90DF90CF90B8
:100D10000895813041F0813018F08230D1F409C05B
:100D200010926E00089580916F008D7F80936F0008
:100D30000895809170008D7F8093700081E0809392
:100D4000B0008091B100887F84608093B1001092E0
:100D5000B30008951F920F920FB60F9211242F9394
:100D60003F934F935F936F937F938F939F93AF9333
:100D7000BF93EF93FF938091C0019091C101A09127
:100D8000C201B091C3010097A105B10551F1E091F5
:100D9000C401F091C50180819091C60189278083AB
:100DA0008091C0019091C101A091C201B091C30195
:100DB000181619061A061B060CF58091C0019091B1
:100DC000C101A091C201B091C3010197A109B1096C
:100DD0008093C0019093C101A093C201B093C3015D
:100DE0000DC082E00E948906E091C401F091C50126
:100DF00090818091C601809589238083FF91EF9136
:100E0000BF91AF919F918F917F916F915F914F9122
:100E10003F912F910F900FBE0F901F901895EF925A
:100E2000FF920F931F937B018C0161157105810562
:100E3000910529F420E030E040E050E00BC00E9432
:100E4000DF00A80197010E94AB07AC01CB01DA01DA
:100E50009C01AD01B901CA011F910F91FF90EF9064
:100E60000895EF92FF920F931F937B018C016217FD
:100E700073078407950764F4261B370B480B590B3F
:100E8000CA01B9010E940F07E60EF71E081F191FBD
:100E9000B701C8011F910F91FF90EF90089500973F
:100EA00029F0BC0180E090E00E94E4000895629F78
:100EB000D001739FF001829FE00DF11D649FE00D52
:100EC000F11D929FF00D839FF00D749FF00D659FB3
:100ED000F00D9927729FB00DE11DF91F639FB00DB2
:100EE000E11DF91FBD01CF011124089597FB092EC3
:100EF00007260AD077FD04D049D006D000201AF486
:100F0000709561957F4F0895F6F7909581959F4F65
:100F10000895A1E21A2EAA1BBB1BFD010DC0AA1F3A
:100F2000BB1FEE1FFF1FA217B307E407F50720F052
:100F3000A21BB30BE40BF50B661F771F881F991FCD
:100F40001A9469F760957095809590959B01AC0116
:100F5000BD01CF01089597FB092E05260ED057FD40
:100F600004D0D7DF0AD0001C38F450954095309556
:100F700021953F4F4F4F5F4F0895F6F7909580951D
:100F8000709561957F4F8F4F9F4F0895AA1BBB1B94
:100F900051E107C0AA1FBB1FA617B70710F0A61B79
:100FA000B70B881F991F5A95A9F780959095BC019A
:100FB000CD010895EE0FFF1F0590F491E02D0994E7
:100FC0002F923F924F925F926F927F928F929F9259
:100FD000AF92BF92CF92DF92EF92FF920F931F9347
:100FE000CF93DF93CDB7DEB7CA1BDB0B0FB6F894F8
:100FF000DEBF0FBECDBF09942A88398848885F8438
:101000006E847D848C849B84AA84B984C884DF80A8
:10101000EE80FD800C811B81AA81B981CE0FD11D8C
:101020000FB6F894DEBF0FBECDBFED010895F89462
:02103000FFCFF0
:101032000100000001000100000000050552056AE0
:0A10420005A304D104F904B704006B
:00000001FF
